:100000000C9434000C943E000C943E000C943E0082
:100010000C943E000C943E000C943E000C943E0068
:100020000C943E000C943E000C943E000C943E0058
:100030000C943E000C943E000C943E000C943E0048
:100040000C943E000C943E000C943E000C943E0038
:100050000C943E000C943E000C943E000C943E0028
:100060000C943E000C943E0011241FBECFEFD8E04C
:10007000DEBFCDBF0E9440000C945F000C940000D6
:100080008FEF84B921E048EA51E6822F8695869564
:100090008695922F92959F7098279170822F881F36
:1000A0008827881F9827822F8295869581709827A8
:1000B000220F292B25B9CA010197F1F7E6CFF89451
:0200C000FFCF70
:00000001FF
