:100000000C9434000C9449000C9449000C94490061
:100010000C9449000C9449000C9449000C9449003C
:100020000C9449000C9449000C9449000C9449002C
:100030000C9449000C9449000C9449000C9449001C
:100040000C9449000C9449000C9449000C9449000C
:100050000C9449000C9449000C9449000C944900FC
:100060000C9449000C94490011241FBECFEFD8E036
:10007000DEBFCDBF11E0A0E0B1E0ECEAF1E002C0EC
:1000800005900D92A235B107D9F70E946C000C942F
:10009000D4000C940000FC0140E050E0A1E090E4AA
:1000A0000DC08A2F8A95F1F72F5F3F4F2E173F071C
:1000B000C0F38BB189278BB94E0F5F1F46175707C7
:1000C00018F420E030E0F2CF089531E0232F2A9594
:1000D000F1F70197D9F708951F93CF93DF93569ABD
:1000E0000E94A30080E091E00E94C300C0E0D8E736
:1000F000CE01EC010E94BC00182F8EE40E94B400D7
:10010000A0E0B0E0FD01E05CFE4F8081181751F4E3
:10011000AA0FBB1FA45EBE4F8D919C91BE010E9491
:100120004B00E8CF1196A231B10561F71B3519F4E8
:10013000C0E0D8E7DFCF80E090EF1D35D1F2CE01EF
:100140000E946500D5CF1092C5008CE08093C4005A
:10015000E0ECF0E080818260808388E18093C100E0
:1001600086E08093C2000895982F8091C00085FF9B
:10017000FCCF9093C60008958091C00087FFFCCF0C
:100180008091C6000895AC0120E007C08091C000B6
:1001900085FFFCCFE093C6002F5FFA01E20FF11D4F
:0C01A000E081EE2399F70895F894FFCF5A
:1001AC002D2D2D2D2D2053657269616C204F72679A
:1001BC00616E202D2D2D2D2D2D0D0A001304D8032D
:1001CC00A1036D033B030D03E102B80291026C0223
:1001DC00490228020902EC01D001B6019E018601F8
:1001EC00617773656466746779686A696B6F6C7044
:0201FC003B279F
:00000001FF
