:100000000C9434000C9449000C9449000C94490061
:100010000C9449000C9449000C9449000C9449003C
:100020000C9449000C9449000C9449000C9449002C
:100030000C9449000C9449000C9449000C9449001C
:100040000C9449000C9449000C9449000C9449000C
:100050000C9449000C9449000C9449000C944900FC
:100060000C9449000C94490011241FBECFEFD8E036
:10007000DEBFCDBF11E0A0E0B1E0EEEFF0E002C0E6
:1000800005900D92A631B107D9F70E9470000C942B
:100090007D000C94000020E049E150E008C0FA0126
:1000A0003197F1F70197D9F72F5F253019F080E1EB
:1000B00097E2F5CF0895DC0120E049E150E00BC064
:1000C0008C9185B980E197E2FA013197F1F70197B8
:1000D000D9F72F5F1196261798F30E944B000895C9
:1000E0008FEF84B980E091E06BE00E945B008BE0D1
:0E00F00091E06BE00E945B00F5CFF894FFCF2B
:1000FE007018FDB63C3C3CB6FD18700E18BD763C33
:06010E003C3C76BD180E1A
:00000001FF
