:100000000C9434000C9449000C9449000C94490061
:100010000C9449000C9449000C9449000C9449003C
:100020000C9449000C9449000C9449000C9449002C
:100030000C9449000C9449000C9449000C9449001C
:100040000C9449000C9449000C9449000C9449000C
:100050000C9449000C9449000C9449000C944900FC
:100060000C9449000C94490011241FBECFEFD8E036
:10007000DEBFCDBF11E0A0E0B1E0E6E0F1E002C0FC
:1000800005900D92A235B107D9F70E944B000C9450
:1000900081000C9400000F931F93569A5A9A08E21D
:1000A00010E04A99FDCF112329F40F5F093209F4BA
:1000B00000E011E0E02FF0E0EE0FFF1FE050FF4FF7
:1000C0008081918160E476E00E946700EACFFC01C4
:1000D00040E050E0A1E090E40DC08A2F8A95F1F74E
:1000E0002F5F3F4F2E173F07C0F38BB189278BB986
:1000F0004E0F5F1F4617570718F420E030E0F2CF8D
:060100000895F894FFCF02
:10010600940094009400BB0094007D00FA00BB00AC
:10011600FA002A01DF00C700D200DF00FA009400CF
:100126007D006F008C007D009400BB00A700C70017
:10013600BB00FA002A01DF00C700D200DF00FA0088
:1001460094007D006F008C007D009400BB00A7002A
:02015600C700E0
:00000001FF
