:100000000C9434000C943E000C943E000C943E0082
:100010000C943E000C943E000C943E000C943E0068
:100020000C943E000C943E000C943E000C943E0058
:100030000C943E000C943E000C943E000C943E0048
:100040000C943E000C943E000C943E000C943E0038
:100050000C943E000C943E000C943E000C943E0028
:100060000C943E000C943E0011241FBECFEFD8E04C
:10007000DEBFCDBF0E9440000C94A2000C94000093
:10008000CF93DF938FEF84B930E0A1E0B0E062E07E
:1000900073E5C9E1D0E00EC025B1CD01032E02C049
:1000A000880F991F0A94E2F7282B25B9CB010197F5
:1000B000F1F73F5F383080F340E050E025B1CD01EB
:1000C000042E02C0880F991F0A94E2F780958223BC
:1000D00085B9CB010197F1F74F5F5F4F483051056C
:1000E00069F78AE990E1FE013197F1F70197D9F7B5
:1000F00037E025B1CD01032E02C0880F991F0A9465
:10010000E2F7282B25B9CB010197F1F7315088F799
:1001100037E025B1CD01032E02C0880F991F0A9444
:10012000E2F78095822385B9CB010197F1F7315031
:1001300080F78AE990E1FE013197F1F70197D9F74D
:0801400030E0AACFF894FFCFD4
:00000001FF
