:100000000C9434000C943E000C943E000C943E0082
:100010000C943E000C943E000C943E000C943E0068
:100020000C943E000C943E000C943E000C943E0058
:100030000C943E000C943E000C943E000C943E0048
:100040000C943E000C943E000C943E000C943E0038
:100050000C943E000C943E000C943E000C943E0028
:100060000C943E000C943E0011241FBECFEFD8E04C
:10007000DEBFCDBF0E9440000C9498000C9400009D
:100080000F931F93CF93DF938FEF84B950E0A1E0DC
:10009000B0E002E013E5C4E0D9E222C045B1252F6B
:1000A00030E0CD01052E02C0880F991F0A94E2F7B7
:1000B000482B45B9F8013197F1F745B12F5F3F4F14
:1000C000BD0102C0660F771F2A95E2F7462B45B99E
:1000D000FE013197F1F725B18095822385B95F5FE5
:1000E0005730E0F267E070E085B19D01062E02C056
:1000F000220F331F0A94E2F7822B85B9C8010197BA
:10010000F1F745B161507040CD01062E02C0880F55
:10011000991F0A94E2F7482B45B9CE010197F1F7F0
:1001200085B12095282325B96623F1F650E0B6CF96
:04013000F894FFCF71
:00000001FF
