:100000000C9434000C9449000C9449000C94490061
:100010000C9449000C9449000C9449000C9449003C
:100020000C9449000C9449000C9449000C9449002C
:100030000C9449000C9449000C9449000C9449001C
:100040000C9449000C9449000C9449000C9449000C
:100050000C9449000C9449000C9449000C944900FC
:100060000C9449000C94490011241FBECFEFD8E036
:10007000DEBFCDBF11E0A0E0B1E0ECE1F1E002C0F5
:1000800005900D92A031B107D9F70E944B000C9456
:100090008C000C9400001F938FEF84B90E945B00CA
:1000A00080E091E00E947B000E947400182F0E9463
:1000B0006C0015B9F9CF1092C5008CE08093C40094
:1000C000E0ECF0E080818260808388E18093C10071
:1000D00086E08093C2000895982F8091C00085FF2C
:1000E000FCCF9093C60008958091C00087FFFCCF9D
:1000F0008091C6000895AC0120E007C08091C00047
:1001000085FFFCCFE093C6002F5FFA01E20FF11DDF
:0C011000E081EE2399F70895F894FFCFEA
:10011C0048656C6C6F20576F726C64210D0A00007F
:00000001FF
