:100000000C9434000C9449000C9449000C94490061
:100010000C9449000C9449000C9449000C9449003C
:100020000C9449000C9449000C9449000C9449002C
:100030000C9449000C9449000C9449000C9449001C
:100040000C9449000C9449000C9449000C9449000C
:100050000C9449000C9449000C9449000C944900FC
:100060000C9449000C94490011241FBECFEFD8E036
:10007000DEBFCDBF11E0A0E0B1E0E6EDF0E002C0F0
:1000800005900D92AE31B107D9F70E944B000C9448
:1000900069000C9400008FEF84B920E069E170E002
:1000A00040E553EC0AC0E22FF0E0E050FF4F8081C2
:1000B00085B9CA010197F1F72F5F2D31A0F315B86B
:1000C00080E197E2FB013197F1F70197D9F720E042
:0600D000EACFF894FFCF17
:1000D600846C7E1F7E6C8400000082FFFF8000001F
:0E00E6007FFF80FF7F0000FFFF33331E1E00F0
:00000001FF
